{
  "_format": "hh-sol-artifact-1",
  "contractName": "CeloDiary",
  "sourceName": "contracts/CeloDiary.sol",
  "abi": [
    {
      "inputs": [],
      "stateMutability": "nonpayable",
      "type": "constructor"
    },
    {
      "inputs": [
        {
          "internalType": "address",
          "name": "owner",
          "type": "address"
        }
      ],
      "name": "OwnableInvalidOwner",
      "type": "error"
    },
    {
      "inputs": [
        {
          "internalType": "address",
          "name": "account",
          "type": "address"
        }
      ],
      "name": "OwnableUnauthorizedAccount",
      "type": "error"
    },
    {
      "inputs": [],
      "name": "ReentrancyGuardReentrantCall",
      "type": "error"
    },
    {
      "anonymous": false,
      "inputs": [
        {
          "indexed": true,
          "internalType": "address",
          "name": "user",
          "type": "address"
        },
        {
          "indexed": false,
          "internalType": "string",
          "name": "cid",
          "type": "string"
        },
        {
          "indexed": false,
          "internalType": "uint256",
          "name": "timestamp",
          "type": "uint256"
        }
      ],
      "name": "DiaryUpdated",
      "type": "event"
    },
    {
      "anonymous": false,
      "inputs": [
        {
          "indexed": true,
          "internalType": "address",
          "name": "user",
          "type": "address"
        },
        {
          "indexed": false,
          "internalType": "uint8",
          "name": "count",
          "type": "uint8"
        }
      ],
      "name": "FreeImageUploaded",
      "type": "event"
    },
    {
      "anonymous": false,
      "inputs": [
        {
          "indexed": true,
          "internalType": "address",
          "name": "previousOwner",
          "type": "address"
        },
        {
          "indexed": true,
          "internalType": "address",
          "name": "newOwner",
          "type": "address"
        }
      ],
      "name": "OwnershipTransferred",
      "type": "event"
    },
    {
      "anonymous": false,
      "inputs": [
        {
          "indexed": true,
          "internalType": "address",
          "name": "user",
          "type": "address"
        },
        {
          "indexed": false,
          "internalType": "bool",
          "name": "premium",
          "type": "bool"
        }
      ],
      "name": "PremiumStatusChanged",
      "type": "event"
    },
    {
      "anonymous": false,
      "inputs": [
        {
          "indexed": true,
          "internalType": "address",
          "name": "user",
          "type": "address"
        },
        {
          "indexed": false,
          "internalType": "uint256",
          "name": "timestamp",
          "type": "uint256"
        }
      ],
      "name": "RewardIssued",
      "type": "event"
    },
    {
      "inputs": [],
      "name": "MAX_FREE_IMAGES",
      "outputs": [
        {
          "internalType": "uint8",
          "name": "",
          "type": "uint8"
        }
      ],
      "stateMutability": "view",
      "type": "function"
    },
    {
      "inputs": [],
      "name": "ONE_DAY",
      "outputs": [
        {
          "internalType": "uint256",
          "name": "",
          "type": "uint256"
        }
      ],
      "stateMutability": "view",
      "type": "function"
    },
    {
      "inputs": [
        {
          "internalType": "address",
          "name": "user",
          "type": "address"
        }
      ],
      "name": "canUploadImage",
      "outputs": [
        {
          "internalType": "bool",
          "name": "",
          "type": "bool"
        }
      ],
      "stateMutability": "view",
      "type": "function"
    },
    {
      "inputs": [
        {
          "internalType": "address",
          "name": "",
          "type": "address"
        }
      ],
      "name": "freeImageUploadsUsed",
      "outputs": [
        {
          "internalType": "uint8",
          "name": "",
          "type": "uint8"
        }
      ],
      "stateMutability": "view",
      "type": "function"
    },
    {
      "inputs": [
        {
          "internalType": "address",
          "name": "user",
          "type": "address"
        }
      ],
      "name": "getUserStatus",
      "outputs": [
        {
          "internalType": "bool",
          "name": "isPremium",
          "type": "bool"
        },
        {
          "internalType": "uint8",
          "name": "imagesUsed",
          "type": "uint8"
        },
        {
          "internalType": "uint256",
          "name": "volumeCount",
          "type": "uint256"
        },
        {
          "internalType": "uint256",
          "name": "lastReward",
          "type": "uint256"
        },
        {
          "internalType": "uint256",
          "name": "nextRewardIn",
          "type": "uint256"
        }
      ],
      "stateMutability": "view",
      "type": "function"
    },
    {
      "inputs": [
        {
          "internalType": "address",
          "name": "user",
          "type": "address"
        }
      ],
      "name": "getUserVolumes",
      "outputs": [
        {
          "components": [
            {
              "internalType": "string",
              "name": "cid",
              "type": "string"
            },
            {
              "internalType": "uint256",
              "name": "timestamp",
              "type": "uint256"
            }
          ],
          "internalType": "struct CeloDiary.DiaryVolume[]",
          "name": "",
          "type": "tuple[]"
        }
      ],
      "stateMutability": "view",
      "type": "function"
    },
    {
      "inputs": [
        {
          "internalType": "address",
          "name": "user",
          "type": "address"
        },
        {
          "internalType": "uint256",
          "name": "index",
          "type": "uint256"
        }
      ],
      "name": "getVolumeAtIndex",
      "outputs": [
        {
          "components": [
            {
              "internalType": "string",
              "name": "cid",
              "type": "string"
            },
            {
              "internalType": "uint256",
              "name": "timestamp",
              "type": "uint256"
            }
          ],
          "internalType": "struct CeloDiary.DiaryVolume",
          "name": "",
          "type": "tuple"
        }
      ],
      "stateMutability": "view",
      "type": "function"
    },
    {
      "inputs": [
        {
          "internalType": "address",
          "name": "user",
          "type": "address"
        }
      ],
      "name": "getVolumeCount",
      "outputs": [
        {
          "internalType": "uint256",
          "name": "",
          "type": "uint256"
        }
      ],
      "stateMutability": "view",
      "type": "function"
    },
    {
      "inputs": [],
      "name": "incrementImageUpload",
      "outputs": [],
      "stateMutability": "nonpayable",
      "type": "function"
    },
    {
      "inputs": [
        {
          "internalType": "address",
          "name": "user",
          "type": "address"
        }
      ],
      "name": "isEligibleForReward",
      "outputs": [
        {
          "internalType": "bool",
          "name": "",
          "type": "bool"
        }
      ],
      "stateMutability": "view",
      "type": "function"
    },
    {
      "inputs": [
        {
          "internalType": "address",
          "name": "",
          "type": "address"
        }
      ],
      "name": "lastRewardTimestamp",
      "outputs": [
        {
          "internalType": "uint256",
          "name": "",
          "type": "uint256"
        }
      ],
      "stateMutability": "view",
      "type": "function"
    },
    {
      "inputs": [
        {
          "internalType": "address",
          "name": "user",
          "type": "address"
        }
      ],
      "name": "latestCID",
      "outputs": [
        {
          "internalType": "string",
          "name": "",
          "type": "string"
        }
      ],
      "stateMutability": "view",
      "type": "function"
    },
    {
      "inputs": [],
      "name": "owner",
      "outputs": [
        {
          "internalType": "address",
          "name": "",
          "type": "address"
        }
      ],
      "stateMutability": "view",
      "type": "function"
    },
    {
      "inputs": [
        {
          "internalType": "address",
          "name": "",
          "type": "address"
        }
      ],
      "name": "premiumUser",
      "outputs": [
        {
          "internalType": "bool",
          "name": "",
          "type": "bool"
        }
      ],
      "stateMutability": "view",
      "type": "function"
    },
    {
      "inputs": [],
      "name": "renounceOwnership",
      "outputs": [],
      "stateMutability": "nonpayable",
      "type": "function"
    },
    {
      "inputs": [
        {
          "internalType": "address",
          "name": "user",
          "type": "address"
        },
        {
          "internalType": "bool",
          "name": "status",
          "type": "bool"
        }
      ],
      "name": "setPremium",
      "outputs": [],
      "stateMutability": "nonpayable",
      "type": "function"
    },
    {
      "inputs": [
        {
          "internalType": "address",
          "name": "user",
          "type": "address"
        }
      ],
      "name": "timeUntilNextReward",
      "outputs": [
        {
          "internalType": "uint256",
          "name": "",
          "type": "uint256"
        }
      ],
      "stateMutability": "view",
      "type": "function"
    },
    {
      "inputs": [
        {
          "internalType": "address",
          "name": "newOwner",
          "type": "address"
        }
      ],
      "name": "transferOwnership",
      "outputs": [],
      "stateMutability": "nonpayable",
      "type": "function"
    },
    {
      "inputs": [
        {
          "internalType": "string",
          "name": "cid",
          "type": "string"
        }
      ],
      "name": "updateDiary",
      "outputs": [],
      "stateMutability": "nonpayable",
      "type": "function"
    },
    {
      "inputs": [
        {
          "internalType": "address",
          "name": "",
          "type": "address"
        },
        {
          "internalType": "uint256",
          "name": "",
          "type": "uint256"
        }
      ],
      "name": "userVolumes",
      "outputs": [
        {
          "internalType": "string",
          "name": "cid",
          "type": "string"
        },
        {
          "internalType": "uint256",
          "name": "timestamp",
          "type": "uint256"
        }
      ],
      "stateMutability": "view",
      "type": "function"
    }
  ],
  "bytecode": "0x608060405234801561001057600080fd5b50338061003757604051631e4fbdf760e01b81526000600482015260240160405180910390fd5b6100408161004a565b506001805561009a565b600080546001600160a01b038381166001600160a01b0319831681178455604051919092169283917f8be0079c531659141344cd1fd0a4f28419497f9722a3daafe3b4186f6b6457e09190a35050565b61120d806100a96000396000f3fe608060405234801561001057600080fd5b506004361061012c5760003560e01c8063779f8d13116100ad578063c4c2f91011610071578063c4c2f910146102e4578063d1ff5aed146102ec578063ea0d5dcd146102f4578063ec9c9f8914610333578063f2fde38b1461035357600080fd5b8063779f8d1314610253578063863e76db146102735780638da5cb5b1461027d5780639abb59e314610298578063aeffed29146102c157600080fd5b806345fc8cae116100f457806345fc8cae146101e45780636a1f6337146102055780636f5fb34914610225578063715018a61461023857806371d4c2551461024057600080fd5b806302d3bb23146101315780630c9385d3146101575780631bdfc0bf1461016c5780633b21fff91461018c578063452361f0146101af575b600080fd5b61014461013f366004610dc2565b610366565b6040519081526020015b60405180910390f35b61016a610165366004610ddd565b6103b2565b005b61017f61017a366004610dc2565b61046b565b60405161014e9190610e5f565b61019f61019a366004610dc2565b610579565b604051901515815260200161014e565b6101d26101bd366004610dc2565b60046020526000908152604090205460ff1681565b60405160ff909116815260200161014e565b6101f76101f2366004610e72565b6105c3565b60405161014e929190610e9c565b610218610213366004610dc2565b61068c565b60405161014e9190610ee7565b61016a610233366004610f49565b61079d565b61016a6108c7565b61019f61024e366004610dc2565b6108db565b610266610261366004610e72565b61090b565b60405161014e9190610fbb565b6101446201518081565b6000546040516001600160a01b03909116815260200161014e565b6101446102a6366004610dc2565b6001600160a01b031660009081526002602052604090205490565b61019f6102cf366004610dc2565b60056020526000908152604090205460ff1681565b6101d2600581565b61016a610a6e565b610307610302366004610dc2565b610bc9565b60408051951515865260ff9094166020860152928401919091526060830152608082015260a00161014e565b610144610341366004610dc2565b60036020526000908152604090205481565b61016a610361366004610dc2565b610c40565b6001600160a01b038116600090815260036020526040812054819061038f906201518090610fe4565b90508042106103a15750600092915050565b6103ab4282610ff7565b9392505050565b6103ba610c7e565b6001600160a01b03821661040c5760405162461bcd60e51b8152602060048201526014602482015273496e76616c69642075736572206164647265737360601b60448201526064015b60405180910390fd5b6001600160a01b038216600081815260056020908152604091829020805460ff191685151590811790915591519182527f8f8172b15e97d8726d0d91f34a8f6985a9d8db29b52b8c21dbb1bfe1f538a147910160405180910390a25050565b6001600160a01b0381166000908152600260205260408120546060918190036104a4575050604080516020810190915260008152919050565b6001600160a01b03831660009081526002602052604090206104c7600183610ff7565b815481106104d7576104d761100a565b906000526020600020906002020160000180546104f390611020565b80601f016020809104026020016040519081016040528092919081815260200182805461051f90611020565b801561056c5780601f106105415761010080835404028352916020019161056c565b820191906000526020600020905b81548152906001019060200180831161054f57829003601f168201915b5050505050915050919050565b6001600160a01b03811660009081526005602052604081205460ff16806105bd57506001600160a01b038216600090815260046020526040902054600560ff909116105b92915050565b600260205281600052604060002081815481106105df57600080fd5b90600052602060002090600202016000915091505080600001805461060390611020565b80601f016020809104026020016040519081016040528092919081815260200182805461062f90611020565b801561067c5780601f106106515761010080835404028352916020019161067c565b820191906000526020600020905b81548152906001019060200180831161065f57829003601f168201915b5050505050908060010154905082565b6001600160a01b0381166000908152600260209081526040808320805482518185028101850190935280835260609492939192909184015b8282101561079257838290600052602060002090600202016040518060400160405290816000820180546106f790611020565b80601f016020809104026020016040519081016040528092919081815260200182805461072390611020565b80156107705780601f1061074557610100808354040283529160200191610770565b820191906000526020600020905b81548152906001019060200180831161075357829003601f168201915b50505050508152602001600182015481525050815260200190600101906106c4565b505050509050919050565b6107a5610cab565b806107e85760405162461bcd60e51b81526020600482015260136024820152724349442063616e6e6f7420626520656d70747960681b6044820152606401610403565b3360009081526002602090815260409182902082516060601f86018490049093028101830184529283018481529092918291908690869081908501838280828437600092018290525093855250504260209384015250835460018101855593815220815191926002020190819061085f90826110bf565b5060208201518160010155505061087533610cd5565b336001600160a01b03167fcf1a7faef86c264e8d5146adcb5bd30845fe697e7c31203c29506117e290c5038383426040516108b29392919061117f565b60405180910390a26108c360018055565b5050565b6108cf610c7e565b6108d96000610d56565b565b6001600160a01b038116600090815260036020526040812054610902906201518090610fe4565b42101592915050565b6040805180820190915260608152600060208201526001600160a01b03831660009081526002602052604090205482106109875760405162461bcd60e51b815260206004820152601a60248201527f566f6c756d6520696e646578206f7574206f6620626f756e64730000000000006044820152606401610403565b6001600160a01b03831660009081526002602052604090208054839081106109b1576109b161100a565b90600052602060002090600202016040518060400160405290816000820180546109da90611020565b80601f0160208091040260200160405190810160405280929190818152602001828054610a0690611020565b8015610a535780601f10610a2857610100808354040283529160200191610a53565b820191906000526020600020905b815481529060010190602001808311610a3657829003601f168201915b50505050508152602001600182015481525050905092915050565b610a76610cab565b3360009081526005602052604090205460ff1680610aa8575033600090815260046020526040902054600560ff909116105b610b265760405162461bcd60e51b815260206004820152604360248201527f4672656520696d616765206c696d697420726561636865642e2055706772616460448201527f6520746f207072656d69756d20666f7220756e6c696d697465642075706c6f6160648201526232399760e91b608482015260a401610403565b3360009081526005602052604090205460ff16610bc057336000908152600460205260408120805460ff1691610b5b836111b8565b82546101009290920a60ff818102199093169183160217909155336000818152600460209081526040918290205491519190931681529092507fdb6b992ffcb68cf0e5dcf971cccb0681bb21f4d90eef8ee57849045406338085910160405180910390a25b6108d960018055565b6001600160a01b0381166000908152600560209081526040808320546004835281842054600284528285205460039094529184205460ff9182169492909116929180610c186201518084610fe4565b905080421015610c3157610c2c4282610ff7565b610c34565b60005b91505091939590929450565b610c48610c7e565b6001600160a01b038116610c7257604051631e4fbdf760e01b815260006004820152602401610403565b610c7b81610d56565b50565b6000546001600160a01b031633146108d95760405163118cdaa760e01b8152336004820152602401610403565b600260015403610cce57604051633ee5aeb560e01b815260040160405180910390fd5b6002600155565b6001600160a01b038116600090815260036020526040902054610cfc906201518090610fe4565b4210610c7b576001600160a01b038116600081815260036020908152604091829020429081905591519182527ff9b6ec770c96c3a6f9225bf3a8463a8ad03e884448af07b4ecd4d19d628946ee910160405180910390a250565b600080546001600160a01b038381166001600160a01b0319831681178455604051919092169283917f8be0079c531659141344cd1fd0a4f28419497f9722a3daafe3b4186f6b6457e09190a35050565b80356001600160a01b0381168114610dbd57600080fd5b919050565b600060208284031215610dd457600080fd5b6103ab82610da6565b60008060408385031215610df057600080fd5b610df983610da6565b915060208301358015158114610e0e57600080fd5b809150509250929050565b6000815180845260005b81811015610e3f57602081850181015186830182015201610e23565b506000602082860101526020601f19601f83011685010191505092915050565b6020815260006103ab6020830184610e19565b60008060408385031215610e8557600080fd5b610e8e83610da6565b946020939093013593505050565b604081526000610eaf6040830185610e19565b90508260208301529392505050565b6000815160408452610ed36040850182610e19565b602093840151949093019390935250919050565b6000602080830181845280855180835260408601915060408160051b870101925083870160005b82811015610f3c57603f19888603018452610f2a858351610ebe565b94509285019290850190600101610f0e565b5092979650505050505050565b60008060208385031215610f5c57600080fd5b823567ffffffffffffffff80821115610f7457600080fd5b818501915085601f830112610f8857600080fd5b813581811115610f9757600080fd5b866020828501011115610fa957600080fd5b60209290920196919550909350505050565b6020815260006103ab6020830184610ebe565b634e487b7160e01b600052601160045260246000fd5b808201808211156105bd576105bd610fce565b818103818111156105bd576105bd610fce565b634e487b7160e01b600052603260045260246000fd5b600181811c9082168061103457607f821691505b60208210810361105457634e487b7160e01b600052602260045260246000fd5b50919050565b634e487b7160e01b600052604160045260246000fd5b601f8211156110ba57600081815260208120601f850160051c810160208610156110975750805b601f850160051c820191505b818110156110b6578281556001016110a3565b5050505b505050565b815167ffffffffffffffff8111156110d9576110d961105a565b6110ed816110e78454611020565b84611070565b602080601f831160018114611122576000841561110a5750858301515b600019600386901b1c1916600185901b1785556110b6565b600085815260208120601f198616915b8281101561115157888601518255948401946001909101908401611132565b508582101561116f5787850151600019600388901b60f8161c191681555b5050505050600190811b01905550565b604081528260408201528284606083013760006060848301015260006060601f19601f8601168301019050826020830152949350505050565b600060ff821660ff81036111ce576111ce610fce565b6001019291505056fea2646970667358221220d5022e88ec16a95a49b8b092e584a732583aecb893e1905da6e9fa3a83184fc264736f6c63430008140033",
  "linkReferences": {},
  "deployedLinkReferences": {}
}